{
    "_format": "hh-sol-artifact-1",
    "contractName": "ERC20BridgeNativeChain",
    "sourceName": "contracts/ERC20BridgeNativeChain.sol",
    "abi": [
        {
            "inputs": [
                {
                    "internalType": "contract IPolygonZkEVMBridge",
                    "name": "_polygonZkEVMBridge",
                    "type": "address"
                },
                {
                    "internalType": "address",
                    "name": "_counterpartContract",
                    "type": "address"
                },
                {
                    "internalType": "uint32",
                    "name": "_counterpartNetwork",
                    "type": "uint32"
                },
                {
                    "internalType": "contract IERC20",
                    "name": "_token",
                    "type": "address"
                }
            ],
            "stateMutability": "nonpayable",
            "type": "constructor"
        },
        {
            "anonymous": false,
            "inputs": [
                {
                    "indexed": false,
                    "internalType": "address",
                    "name": "destinationAddress",
                    "type": "address"
                },
                {
                    "indexed": false,
                    "internalType": "uint256",
                    "name": "amount",
                    "type": "uint256"
                }
            ],
            "name": "BridgeTokens",
            "type": "event"
        },
        {
            "anonymous": false,
            "inputs": [
                {
                    "indexed": false,
                    "internalType": "address",
                    "name": "destinationAddress",
                    "type": "address"
                },
                {
                    "indexed": false,
                    "internalType": "uint256",
                    "name": "amount",
                    "type": "uint256"
                }
            ],
            "name": "ClaimTokens",
            "type": "event"
        },
        {
            "inputs": [
                {
                    "internalType": "address",
                    "name": "destinationAddress",
                    "type": "address"
                },
                {
                    "internalType": "uint256",
                    "name": "amount",
                    "type": "uint256"
                },
                {
                    "internalType": "bool",
                    "name": "forceUpdateGlobalExitRoot",
                    "type": "bool"
                }
            ],
            "name": "bridgeToken",
            "outputs": [],
            "stateMutability": "nonpayable",
            "type": "function"
        },
        {
            "inputs": [],
            "name": "counterpartContract",
            "outputs": [
                {
                    "internalType": "address",
                    "name": "",
                    "type": "address"
                }
            ],
            "stateMutability": "view",
            "type": "function"
        },
        {
            "inputs": [],
            "name": "counterpartNetwork",
            "outputs": [
                {
                    "internalType": "uint32",
                    "name": "",
                    "type": "uint32"
                }
            ],
            "stateMutability": "view",
            "type": "function"
        },
        {
            "inputs": [
                {
                    "internalType": "address",
                    "name": "originAddress",
                    "type": "address"
                },
                {
                    "internalType": "uint32",
                    "name": "originNetwork",
                    "type": "uint32"
                },
                {
                    "internalType": "bytes",
                    "name": "data",
                    "type": "bytes"
                }
            ],
            "name": "onMessageReceived",
            "outputs": [],
            "stateMutability": "payable",
            "type": "function"
        },
        {
            "inputs": [],
            "name": "polygonZkEVMBridge",
            "outputs": [
                {
                    "internalType": "contract IPolygonZkEVMBridge",
                    "name": "",
                    "type": "address"
                }
            ],
            "stateMutability": "view",
            "type": "function"
        },
        {
            "inputs": [],
            "name": "token",
            "outputs": [
                {
                    "internalType": "contract IERC20",
                    "name": "",
                    "type": "address"
                }
            ],
            "stateMutability": "view",
            "type": "function"
        }
    ],
    "bytecode": "0x61010060405234801561001157600080fd5b50604051610f55380380610f558339810160408190526100309161006e565b6001600160a01b0393841660805291831660a05263ffffffff1660c0521660e0526100d6565b6001600160a01b038116811461006b57600080fd5b50565b6000806000806080858703121561008457600080fd5b845161008f81610056565b60208601519094506100a081610056565b604086015190935063ffffffff811681146100ba57600080fd5b60608601519092506100cb81610056565b939692955090935050565b60805160a05160c05160e051610e0f6101466000396000818161018c015281816104d50152610763015260008181610143015281816103fb015261056a01526000818160b101528181610330015261058c01526000818161010f01528181610265015261053d0152610e0f6000f3fe6080604052600436106100655760003560e01c80635d43792c116100435780635d43792c146100fd578063b013813214610131578063fc0c546a1461017a57600080fd5b806303bdcfc91461006a5780631806b5f21461008c57806340cf5e811461009f575b600080fd5b34801561007657600080fd5b5061008a610085366004610b2f565b6101ae565b005b61008a61009a366004610ba0565b61024d565b3480156100ab57600080fd5b506100d37f000000000000000000000000000000000000000000000000000000000000000081565b60405173ffffffffffffffffffffffffffffffffffffffff90911681526020015b60405180910390f35b34801561010957600080fd5b506100d37f000000000000000000000000000000000000000000000000000000000000000081565b34801561013d57600080fd5b506101657f000000000000000000000000000000000000000000000000000000000000000081565b60405163ffffffff90911681526020016100f4565b34801561018657600080fd5b506100d37f000000000000000000000000000000000000000000000000000000000000000081565b6101b7826104bb565b6040805173ffffffffffffffffffffffffffffffffffffffff8516602082015280820184905281518082038301815260609091019091526101f88183610500565b6040805173ffffffffffffffffffffffffffffffffffffffff86168152602081018590527f84de4c8d75302469871d77e99e829ab3f981ef6b4f2ab221b8fe7816cec54e35910160405180910390a150505050565b3373ffffffffffffffffffffffffffffffffffffffff7f00000000000000000000000000000000000000000000000000000000000000001614610317576040517f08c379a000000000000000000000000000000000000000000000000000000000815260206004820152603660248201527f546f6b656e577261707065643a3a506f6c79676f6e4272696467654c69623a2060448201527f4e6f7420506f6c79676f6e5a6b45564d4272696467650000000000000000000060648201526084015b60405180910390fd5b8273ffffffffffffffffffffffffffffffffffffffff167f000000000000000000000000000000000000000000000000000000000000000073ffffffffffffffffffffffffffffffffffffffff16146103f2576040517f08c379a000000000000000000000000000000000000000000000000000000000815260206004820152603860248201527f546f6b656e577261707065643a3a506f6c79676f6e4272696467654c69623a2060448201527f4e6f7420636f756e7465727061727420636f6e74726163740000000000000000606482015260840161030e565b8163ffffffff167f000000000000000000000000000000000000000000000000000000000000000063ffffffff16146104ad576040517f08c379a000000000000000000000000000000000000000000000000000000000815260206004820152603760248201527f546f6b656e577261707065643a3a506f6c79676f6e4272696467654c69623a2060448201527f4e6f7420636f756e74657270617274206e6574776f726b000000000000000000606482015260840161030e565b6104b6816105ee565b505050565b6104fd73ffffffffffffffffffffffffffffffffffffffff7f000000000000000000000000000000000000000000000000000000000000000016333084610667565b50565b6040517f240ff37800000000000000000000000000000000000000000000000000000000815273ffffffffffffffffffffffffffffffffffffffff7f0000000000000000000000000000000000000000000000000000000000000000169063240ff378906105b8907f0000000000000000000000000000000000000000000000000000000000000000907f00000000000000000000000000000000000000000000000000000000000000009086908890600401610d0b565b600060405180830381600087803b1580156105d257600080fd5b505af11580156105e6573d6000803e3d6000fd5b505050505050565b600080828060200190518101906106059190610d58565b915091506106138282610749565b6040805173ffffffffffffffffffffffffffffffffffffffff84168152602081018390527f4d7f917f6b905f28ba5297e6c224a6cfec20ac6a3698a55b412d30b95ad25d2f910160405180910390a1505050565b60405173ffffffffffffffffffffffffffffffffffffffff808516602483015283166044820152606481018290526107439085907f23b872dd00000000000000000000000000000000000000000000000000000000906084015b604080517fffffffffffffffffffffffffffffffffffffffffffffffffffffffffffffffe08184030181529190526020810180517bffffffffffffffffffffffffffffffffffffffffffffffffffffffff167fffffffff000000000000000000000000000000000000000000000000000000009093169290921790915261078e565b50505050565b61078a73ffffffffffffffffffffffffffffffffffffffff7f000000000000000000000000000000000000000000000000000000000000000016838361089a565b5050565b60006107f0826040518060400160405280602081526020017f5361666545524332303a206c6f772d6c6576656c2063616c6c206661696c65648152508573ffffffffffffffffffffffffffffffffffffffff166108f09092919063ffffffff16565b8051909150156104b6578080602001905181019061080e9190610d86565b6104b6576040517f08c379a000000000000000000000000000000000000000000000000000000000815260206004820152602a60248201527f5361666545524332303a204552433230206f7065726174696f6e20646964206e60448201527f6f74207375636365656400000000000000000000000000000000000000000000606482015260840161030e565b60405173ffffffffffffffffffffffffffffffffffffffff83166024820152604481018290526104b69084907fa9059cbb00000000000000000000000000000000000000000000000000000000906064016106c1565b60606108ff8484600085610907565b949350505050565b606082471015610999576040517f08c379a000000000000000000000000000000000000000000000000000000000815260206004820152602660248201527f416464726573733a20696e73756666696369656e742062616c616e636520666f60448201527f722063616c6c0000000000000000000000000000000000000000000000000000606482015260840161030e565b6000808673ffffffffffffffffffffffffffffffffffffffff1685876040516109c29190610daa565b60006040518083038185875af1925050503d80600081146109ff576040519150601f19603f3d011682016040523d82523d6000602084013e610a04565b606091505b5091509150610a1587838387610a20565b979650505050505050565b60608315610ab6578251600003610aaf5773ffffffffffffffffffffffffffffffffffffffff85163b610aaf576040517f08c379a000000000000000000000000000000000000000000000000000000000815260206004820152601d60248201527f416464726573733a2063616c6c20746f206e6f6e2d636f6e7472616374000000604482015260640161030e565b50816108ff565b6108ff8383815115610acb5781518083602001fd5b806040517f08c379a000000000000000000000000000000000000000000000000000000000815260040161030e9190610dc6565b73ffffffffffffffffffffffffffffffffffffffff811681146104fd57600080fd5b80151581146104fd57600080fd5b600080600060608486031215610b4457600080fd5b8335610b4f81610aff565b9250602084013591506040840135610b6681610b21565b809150509250925092565b7f4e487b7100000000000000000000000000000000000000000000000000000000600052604160045260246000fd5b600080600060608486031215610bb557600080fd5b8335610bc081610aff565b9250602084013563ffffffff81168114610bd957600080fd5b9150604084013567ffffffffffffffff80821115610bf657600080fd5b818601915086601f830112610c0a57600080fd5b813581811115610c1c57610c1c610b71565b604051601f82017fffffffffffffffffffffffffffffffffffffffffffffffffffffffffffffffe0908116603f01168101908382118183101715610c6257610c62610b71565b81604052828152896020848701011115610c7b57600080fd5b8260208601602083013760006020848301015280955050505050509250925092565b60005b83811015610cb8578181015183820152602001610ca0565b50506000910152565b60008151808452610cd9816020860160208601610c9d565b601f017fffffffffffffffffffffffffffffffffffffffffffffffffffffffffffffffe0169290920160200192915050565b63ffffffff8516815273ffffffffffffffffffffffffffffffffffffffff841660208201528215156040820152608060608201526000610d4e6080830184610cc1565b9695505050505050565b60008060408385031215610d6b57600080fd5b8251610d7681610aff565b6020939093015192949293505050565b600060208284031215610d9857600080fd5b8151610da381610b21565b9392505050565b60008251610dbc818460208701610c9d565b9190910192915050565b602081526000610da36020830184610cc156fea2646970667358221220c3ef19ee822bd1ee8a5574bc1d0b7d3cce0c02bfc3194ca96a4c78d5dd4836ef64736f6c63430008110033",
    "linkReferences": {},
    "deployedLinkReferences": {}
}